{
  "abi": [
    {
      "inputs": [
        {
          "internalType": "string",
          "name": "_initialBaseURI",
          "type": "string"
        },
        {
          "internalType": "address",
          "name": "_initalUsdc",
          "type": "address"
        }
      ],
      "stateMutability": "nonpayable",
      "type": "constructor"
    },
    {
      "anonymous": false,
      "inputs": [
        {
          "indexed": true,
          "internalType": "address",
          "name": "owner",
          "type": "address"
        },
        {
          "indexed": true,
          "internalType": "address",
          "name": "approved",
          "type": "address"
        },
        {
          "indexed": true,
          "internalType": "uint256",
          "name": "tokenId",
          "type": "uint256"
        }
      ],
      "name": "Approval",
      "type": "event"
    },
    {
      "anonymous": false,
      "inputs": [
        {
          "indexed": true,
          "internalType": "address",
          "name": "owner",
          "type": "address"
        },
        {
          "indexed": true,
          "internalType": "address",
          "name": "operator",
          "type": "address"
        },
        {
          "indexed": false,
          "internalType": "bool",
          "name": "approved",
          "type": "bool"
        }
      ],
      "name": "ApprovalForAll",
      "type": "event"
    },
    {
      "anonymous": false,
      "inputs": [
        {
          "indexed": true,
          "internalType": "address",
          "name": "previousOwner",
          "type": "address"
        },
        {
          "indexed": true,
          "internalType": "address",
          "name": "newOwner",
          "type": "address"
        }
      ],
      "name": "OwnershipTransferred",
      "type": "event"
    },
    {
      "anonymous": false,
      "inputs": [
        {
          "indexed": true,
          "internalType": "address",
          "name": "from",
          "type": "address"
        },
        {
          "indexed": true,
          "internalType": "address",
          "name": "to",
          "type": "address"
        },
        {
          "indexed": true,
          "internalType": "uint256",
          "name": "tokenId",
          "type": "uint256"
        }
      ],
      "name": "Transfer",
      "type": "event"
    },
    {
      "inputs": [
        {
          "internalType": "address",
          "name": "to",
          "type": "address"
        },
        {
          "internalType": "uint256",
          "name": "tokenId",
          "type": "uint256"
        }
      ],
      "name": "approve",
      "outputs": [],
      "stateMutability": "nonpayable",
      "type": "function"
    },
    {
      "inputs": [
        {
          "internalType": "address",
          "name": "owner",
          "type": "address"
        }
      ],
      "name": "balanceOf",
      "outputs": [
        {
          "internalType": "uint256",
          "name": "",
          "type": "uint256"
        }
      ],
      "stateMutability": "view",
      "type": "function"
    },
    {
      "inputs": [],
      "name": "baseURI",
      "outputs": [
        {
          "internalType": "string",
          "name": "",
          "type": "string"
        }
      ],
      "stateMutability": "view",
      "type": "function"
    },
    {
      "inputs": [],
      "name": "currentMintId",
      "outputs": [
        {
          "internalType": "uint256",
          "name": "",
          "type": "uint256"
        }
      ],
      "stateMutability": "view",
      "type": "function"
    },
    {
      "inputs": [
        {
          "internalType": "uint256",
          "name": "tokenId",
          "type": "uint256"
        }
      ],
      "name": "getApproved",
      "outputs": [
        {
          "internalType": "address",
          "name": "",
          "type": "address"
        }
      ],
      "stateMutability": "view",
      "type": "function"
    },
    {
      "inputs": [
        {
          "internalType": "address",
          "name": "owner",
          "type": "address"
        },
        {
          "internalType": "address",
          "name": "operator",
          "type": "address"
        }
      ],
      "name": "isApprovedForAll",
      "outputs": [
        {
          "internalType": "bool",
          "name": "",
          "type": "bool"
        }
      ],
      "stateMutability": "view",
      "type": "function"
    },
    {
      "inputs": [],
      "name": "mint",
      "outputs": [],
      "stateMutability": "payable",
      "type": "function"
    },
    {
      "inputs": [],
      "name": "name",
      "outputs": [
        {
          "internalType": "string",
          "name": "",
          "type": "string"
        }
      ],
      "stateMutability": "view",
      "type": "function"
    },
    {
      "inputs": [],
      "name": "owner",
      "outputs": [
        {
          "internalType": "address",
          "name": "",
          "type": "address"
        }
      ],
      "stateMutability": "view",
      "type": "function"
    },
    {
      "inputs": [
        {
          "internalType": "uint256",
          "name": "tokenId",
          "type": "uint256"
        }
      ],
      "name": "ownerOf",
      "outputs": [
        {
          "internalType": "address",
          "name": "",
          "type": "address"
        }
      ],
      "stateMutability": "view",
      "type": "function"
    },
    {
      "inputs": [],
      "name": "renounceOwnership",
      "outputs": [],
      "stateMutability": "nonpayable",
      "type": "function"
    },
    {
      "inputs": [
        {
          "internalType": "address",
          "name": "from",
          "type": "address"
        },
        {
          "internalType": "address",
          "name": "to",
          "type": "address"
        },
        {
          "internalType": "uint256",
          "name": "tokenId",
          "type": "uint256"
        }
      ],
      "name": "safeTransferFrom",
      "outputs": [],
      "stateMutability": "nonpayable",
      "type": "function"
    },
    {
      "inputs": [
        {
          "internalType": "address",
          "name": "from",
          "type": "address"
        },
        {
          "internalType": "address",
          "name": "to",
          "type": "address"
        },
        {
          "internalType": "uint256",
          "name": "tokenId",
          "type": "uint256"
        },
        {
          "internalType": "bytes",
          "name": "data",
          "type": "bytes"
        }
      ],
      "name": "safeTransferFrom",
      "outputs": [],
      "stateMutability": "nonpayable",
      "type": "function"
    },
    {
      "inputs": [
        {
          "internalType": "address",
          "name": "operator",
          "type": "address"
        },
        {
          "internalType": "bool",
          "name": "approved",
          "type": "bool"
        }
      ],
      "name": "setApprovalForAll",
      "outputs": [],
      "stateMutability": "nonpayable",
      "type": "function"
    },
    {
      "inputs": [
        {
          "internalType": "bytes4",
          "name": "interfaceId",
          "type": "bytes4"
        }
      ],
      "name": "supportsInterface",
      "outputs": [
        {
          "internalType": "bool",
          "name": "",
          "type": "bool"
        }
      ],
      "stateMutability": "view",
      "type": "function"
    },
    {
      "inputs": [],
      "name": "symbol",
      "outputs": [
        {
          "internalType": "string",
          "name": "",
          "type": "string"
        }
      ],
      "stateMutability": "view",
      "type": "function"
    },
    {
      "inputs": [
        {
          "internalType": "uint256",
          "name": "tokenId",
          "type": "uint256"
        }
      ],
      "name": "tokenURI",
      "outputs": [
        {
          "internalType": "string",
          "name": "",
          "type": "string"
        }
      ],
      "stateMutability": "view",
      "type": "function"
    },
    {
      "inputs": [
        {
          "internalType": "address",
          "name": "from",
          "type": "address"
        },
        {
          "internalType": "address",
          "name": "to",
          "type": "address"
        },
        {
          "internalType": "uint256",
          "name": "tokenId",
          "type": "uint256"
        }
      ],
      "name": "transferFrom",
      "outputs": [],
      "stateMutability": "nonpayable",
      "type": "function"
    },
    {
      "inputs": [
        {
          "internalType": "address",
          "name": "newOwner",
          "type": "address"
        }
      ],
      "name": "transferOwnership",
      "outputs": [],
      "stateMutability": "nonpayable",
      "type": "function"
    },
    {
      "inputs": [],
      "name": "withdraw",
      "outputs": [
        {
          "internalType": "bool",
          "name": "",
          "type": "bool"
        }
      ],
      "stateMutability": "nonpayable",
      "type": "function"
    }
  ],
  "bytecode": {
    "object": "0x608060405260006008553480156200001657600080fd5b5060405162001c5338038062001c53833981016040819052620000399162000219565b604080518082018252600680825265139054d3919560d21b6020808401828152855180870190965292855284015281519192916200007a9160009162000140565b5080516200009090600190602084019062000140565b505050620000ad620000a7620000ea60201b60201c565b620000ee565b8151620000c290600790602085019062000140565b50600980546001600160a01b0319166001600160a01b03929092169190911790555062000346565b3390565b600680546001600160a01b038381166001600160a01b0319831681179093556040519116919082907f8be0079c531659141344cd1fd0a4f28419497f9722a3daafe3b4186f6b6457e090600090a35050565b8280546200014e906200030a565b90600052602060002090601f016020900481019282620001725760008555620001bd565b82601f106200018d57805160ff1916838001178555620001bd565b82800160010185558215620001bd579182015b82811115620001bd578251825591602001919060010190620001a0565b50620001cb929150620001cf565b5090565b5b80821115620001cb5760008155600101620001d0565b634e487b7160e01b600052604160045260246000fd5b80516001600160a01b03811681146200021457600080fd5b919050565b600080604083850312156200022d57600080fd5b82516001600160401b03808211156200024557600080fd5b818501915085601f8301126200025a57600080fd5b8151818111156200026f576200026f620001e6565b604051601f8201601f19908116603f011681019083821181831017156200029a576200029a620001e6565b81604052828152602093508884848701011115620002b757600080fd5b600091505b82821015620002db5784820184015181830185015290830190620002bc565b82821115620002ed5760008484830101525b9550620002ff915050858201620001fc565b925050509250929050565b600181811c908216806200031f57607f821691505b6020821081036200034057634e487b7160e01b600052602260045260246000fd5b50919050565b6118fd80620003566000396000f3fe60806040526004361061011f5760003560e01c806370a08231116100a0578063a22cb46511610064578063a22cb465146102f3578063b88d4fde14610313578063c87b56dd14610333578063e985e9c514610353578063f2fde38b1461039c57600080fd5b806370a0823114610267578063715018a61461029557806373b6abd5146102aa5780638da5cb5b146102c057806395d89b41146102de57600080fd5b806323b872dd116100e757806323b872dd146101dd5780633ccfd60b146101fd57806342842e0e146102125780636352211e146102325780636c0360eb1461025257600080fd5b806301ffc9a71461012457806306fdde0314610159578063081812fc1461017b578063095ea7b3146101b35780631249c58b146101d5575b600080fd5b34801561013057600080fd5b5061014461013f36600461141c565b6103bc565b60405190151581526020015b60405180910390f35b34801561016557600080fd5b5061016e61040e565b6040516101509190611491565b34801561018757600080fd5b5061019b6101963660046114a4565b6104a0565b6040516001600160a01b039091168152602001610150565b3480156101bf57600080fd5b506101d36101ce3660046114d9565b6104c7565b005b6101d36105e1565b3480156101e957600080fd5b506101d36101f8366004611503565b610752565b34801561020957600080fd5b50610144610783565b34801561021e57600080fd5b506101d361022d366004611503565b61087f565b34801561023e57600080fd5b5061019b61024d3660046114a4565b61089a565b34801561025e57600080fd5b5061016e6108fa565b34801561027357600080fd5b5061028761028236600461153f565b610988565b604051908152602001610150565b3480156102a157600080fd5b506101d3610a0e565b3480156102b657600080fd5b5061028760085481565b3480156102cc57600080fd5b506006546001600160a01b031661019b565b3480156102ea57600080fd5b5061016e610a20565b3480156102ff57600080fd5b506101d361030e366004611568565b610a2f565b34801561031f57600080fd5b506101d361032e3660046115b5565b610a3e565b34801561033f57600080fd5b5061016e61034e3660046114a4565b610a76565b34801561035f57600080fd5b5061014461036e366004611691565b6001600160a01b03918216600090815260056020908152604080832093909416825291909152205460ff1690565b3480156103a857600080fd5b506101d36103b736600461153f565b610add565b60006001600160e01b031982166380ac58cd60e01b14806103ed57506001600160e01b03198216635b5e139f60e01b145b8061040857506301ffc9a760e01b6001600160e01b03198316145b92915050565b60606000805461041d906116c4565b80601f0160208091040260200160405190810160405280929190818152602001828054610449906116c4565b80156104965780601f1061046b57610100808354040283529160200191610496565b820191906000526020600020905b81548152906001019060200180831161047957829003601f168201915b5050505050905090565b60006104ab82610b56565b506000908152600460205260409020546001600160a01b031690565b60006104d28261089a565b9050806001600160a01b0316836001600160a01b0316036105445760405162461bcd60e51b815260206004820152602160248201527f4552433732313a20617070726f76616c20746f2063757272656e74206f776e656044820152603960f91b60648201526084015b60405180910390fd5b336001600160a01b03821614806105605750610560813361036e565b6105d25760405162461bcd60e51b815260206004820152603d60248201527f4552433732313a20617070726f76652063616c6c6572206973206e6f7420746f60448201527f6b656e206f776e6572206f7220617070726f76656420666f7220616c6c000000606482015260840161053b565b6105dc8383610bb5565b505050565b6105ea33610988565b156106375760405162461bcd60e51b815260206004820152601860248201527f596f7520616c72656164792068617665206120746f6b656e0000000000000000604482015260640161053b565b6009546001600160a01b031663a9059cbb30826370a08231336040516001600160e01b031960e084901b1681526001600160a01b039091166004820152602401602060405180830381865afa158015610694573d6000803e3d6000fd5b505050506040513d601f19601f820116820180604052508101906106b891906116fe565b6040516001600160e01b031960e085901b1681526001600160a01b03909216600483015260248201526044016020604051808303816000875af1158015610703573d6000803e3d6000fd5b505050506040513d601f19601f820116820180604052508101906107279190611717565b50600854610736906001611734565b6008556107503360085461074b906001611734565b610c23565b565b61075c3382610c3d565b6107785760405162461bcd60e51b815260040161053b9061175a565b6105dc838383610cbc565b600061078d610e20565b6009546001600160a01b031663a9059cbb336009546040516370a0823160e01b81523060048201526001600160a01b03909116906370a0823190602401602060405180830381865afa1580156107e7573d6000803e3d6000fd5b505050506040513d601f19601f8201168201806040525081019061080b91906116fe565b6040516001600160e01b031960e085901b1681526001600160a01b03909216600483015260248201526044016020604051808303816000875af1158015610856573d6000803e3d6000fd5b505050506040513d601f19601f8201168201806040525081019061087a9190611717565b905090565b6105dc83838360405180602001604052806000815250610a3e565b6000818152600260205260408120546001600160a01b0316806104085760405162461bcd60e51b8152602060048201526018602482015277115490cdcc8c4e881a5b9d985b1a59081d1bdad95b88125160421b604482015260640161053b565b60078054610907906116c4565b80601f0160208091040260200160405190810160405280929190818152602001828054610933906116c4565b80156109805780601f1061095557610100808354040283529160200191610980565b820191906000526020600020905b81548152906001019060200180831161096357829003601f168201915b505050505081565b60006001600160a01b0382166109f25760405162461bcd60e51b815260206004820152602960248201527f4552433732313a2061646472657373207a65726f206973206e6f7420612076616044820152683634b21037bbb732b960b91b606482015260840161053b565b506001600160a01b031660009081526003602052604090205490565b610a16610e20565b6107506000610e7a565b60606001805461041d906116c4565b610a3a338383610ecc565b5050565b610a483383610c3d565b610a645760405162461bcd60e51b815260040161053b9061175a565b610a7084848484610f9a565b50505050565b6060610a8182610b56565b6000610a8b610fcd565b90506000815111610aab5760405180602001604052806000815250610ad6565b80610ab584610fdc565b604051602001610ac69291906117a7565b6040516020818303038152906040525b9392505050565b610ae5610e20565b6001600160a01b038116610b4a5760405162461bcd60e51b815260206004820152602660248201527f4f776e61626c653a206e6577206f776e657220697320746865207a65726f206160448201526564647265737360d01b606482015260840161053b565b610b5381610e7a565b50565b6000818152600260205260409020546001600160a01b0316610b535760405162461bcd60e51b8152602060048201526018602482015277115490cdcc8c4e881a5b9d985b1a59081d1bdad95b88125160421b604482015260640161053b565b600081815260046020526040902080546001600160a01b0319166001600160a01b0384169081179091558190610bea8261089a565b6001600160a01b03167f8c5be1e5ebec7d5bd14f71427d1e84f3dd0314c0f7b2291e5b200ac8c7c3b92560405160405180910390a45050565b610a3a82826040518060200160405280600081525061106f565b600080610c498361089a565b9050806001600160a01b0316846001600160a01b03161480610c9057506001600160a01b0380821660009081526005602090815260408083209388168352929052205460ff165b80610cb45750836001600160a01b0316610ca9846104a0565b6001600160a01b0316145b949350505050565b826001600160a01b0316610ccf8261089a565b6001600160a01b031614610cf55760405162461bcd60e51b815260040161053b906117d6565b6001600160a01b038216610d575760405162461bcd60e51b8152602060048201526024808201527f4552433732313a207472616e7366657220746f20746865207a65726f206164646044820152637265737360e01b606482015260840161053b565b826001600160a01b0316610d6a8261089a565b6001600160a01b031614610d905760405162461bcd60e51b815260040161053b906117d6565b600081815260046020908152604080832080546001600160a01b03199081169091556001600160a01b0387811680865260038552838620805460001901905590871680865283862080546001019055868652600290945282852080549092168417909155905184937fddf252ad1be2c89b69c2b068fc378daa952ba7f163c4a11628f55a4df523b3ef91a4505050565b6006546001600160a01b031633146107505760405162461bcd60e51b815260206004820181905260248201527f4f776e61626c653a2063616c6c6572206973206e6f7420746865206f776e6572604482015260640161053b565b600680546001600160a01b038381166001600160a01b0319831681179093556040519116919082907f8be0079c531659141344cd1fd0a4f28419497f9722a3daafe3b4186f6b6457e090600090a35050565b816001600160a01b0316836001600160a01b031603610f2d5760405162461bcd60e51b815260206004820152601960248201527f4552433732313a20617070726f766520746f2063616c6c657200000000000000604482015260640161053b565b6001600160a01b03838116600081815260056020908152604080832094871680845294825291829020805460ff191686151590811790915591519182527f17307eab39ab6107e8899845ad3d59bd9653f200f220920489ca2b5937696c31910160405180910390a3505050565b610fa5848484610cbc565b610fb1848484846110a2565b610a705760405162461bcd60e51b815260040161053b9061181b565b60606007805461041d906116c4565b60606000610fe9836111a3565b600101905060008167ffffffffffffffff8111156110095761100961159f565b6040519080825280601f01601f191660200182016040528015611033576020820181803683370190505b5090508181016020015b600019016f181899199a1a9b1b9c1cb0b131b232b360811b600a86061a8153600a850494508461103d57509392505050565b611079838361127b565b61108660008484846110a2565b6105dc5760405162461bcd60e51b815260040161053b9061181b565b60006001600160a01b0384163b1561119857604051630a85bd0160e11b81526001600160a01b0385169063150b7a02906110e690339089908890889060040161186d565b6020604051808303816000875af1925050508015611121575060408051601f3d908101601f1916820190925261111e918101906118aa565b60015b61117e573d80801561114f576040519150601f19603f3d011682016040523d82523d6000602084013e611154565b606091505b5080516000036111765760405162461bcd60e51b815260040161053b9061181b565b805181602001fd5b6001600160e01b031916630a85bd0160e11b149050610cb4565b506001949350505050565b60008072184f03e93ff9f4daa797ed6e38ed64bf6a1f0160401b83106111e25772184f03e93ff9f4daa797ed6e38ed64bf6a1f0160401b830492506040015b6d04ee2d6d415b85acef8100000000831061120e576d04ee2d6d415b85acef8100000000830492506020015b662386f26fc10000831061122c57662386f26fc10000830492506010015b6305f5e1008310611244576305f5e100830492506008015b612710831061125857612710830492506004015b6064831061126a576064830492506002015b600a83106104085760010192915050565b6001600160a01b0382166112d15760405162461bcd60e51b815260206004820181905260248201527f4552433732313a206d696e7420746f20746865207a65726f2061646472657373604482015260640161053b565b6000818152600260205260409020546001600160a01b0316156113365760405162461bcd60e51b815260206004820152601c60248201527f4552433732313a20746f6b656e20616c7265616479206d696e74656400000000604482015260640161053b565b6000818152600260205260409020546001600160a01b03161561139b5760405162461bcd60e51b815260206004820152601c60248201527f4552433732313a20746f6b656e20616c7265616479206d696e74656400000000604482015260640161053b565b6001600160a01b038216600081815260036020908152604080832080546001019055848352600290915280822080546001600160a01b0319168417905551839291907fddf252ad1be2c89b69c2b068fc378daa952ba7f163c4a11628f55a4df523b3ef908290a45050565b6001600160e01b031981168114610b5357600080fd5b60006020828403121561142e57600080fd5b8135610ad681611406565b60005b8381101561145457818101518382015260200161143c565b83811115610a705750506000910152565b6000815180845261147d816020860160208601611439565b601f01601f19169290920160200192915050565b602081526000610ad66020830184611465565b6000602082840312156114b657600080fd5b5035919050565b80356001600160a01b03811681146114d457600080fd5b919050565b600080604083850312156114ec57600080fd5b6114f5836114bd565b946020939093013593505050565b60008060006060848603121561151857600080fd5b611521846114bd565b925061152f602085016114bd565b9150604084013590509250925092565b60006020828403121561155157600080fd5b610ad6826114bd565b8015158114610b5357600080fd5b6000806040838503121561157b57600080fd5b611584836114bd565b915060208301356115948161155a565b809150509250929050565b634e487b7160e01b600052604160045260246000fd5b600080600080608085870312156115cb57600080fd5b6115d4856114bd565b93506115e2602086016114bd565b925060408501359150606085013567ffffffffffffffff8082111561160657600080fd5b818701915087601f83011261161a57600080fd5b81358181111561162c5761162c61159f565b604051601f8201601f19908116603f011681019083821181831017156116545761165461159f565b816040528281528a602084870101111561166d57600080fd5b82602086016020830137600060208483010152809550505050505092959194509250565b600080604083850312156116a457600080fd5b6116ad836114bd565b91506116bb602084016114bd565b90509250929050565b600181811c908216806116d857607f821691505b6020821081036116f857634e487b7160e01b600052602260045260246000fd5b50919050565b60006020828403121561171057600080fd5b5051919050565b60006020828403121561172957600080fd5b8151610ad68161155a565b6000821982111561175557634e487b7160e01b600052601160045260246000fd5b500190565b6020808252602d908201527f4552433732313a2063616c6c6572206973206e6f7420746f6b656e206f776e6560408201526c1c881bdc88185c1c1c9bdd9959609a1b606082015260800190565b600083516117b9818460208801611439565b8351908301906117cd818360208801611439565b01949350505050565b60208082526025908201527f4552433732313a207472616e736665722066726f6d20696e636f72726563742060408201526437bbb732b960d91b606082015260800190565b60208082526032908201527f4552433732313a207472616e7366657220746f206e6f6e20455243373231526560408201527131b2b4bb32b91034b6b83632b6b2b73a32b960711b606082015260800190565b6001600160a01b03858116825284166020820152604081018390526080606082018190526000906118a090830184611465565b9695505050505050565b6000602082840312156118bc57600080fd5b8151610ad68161140656fea2646970667358221220dececb9c616a89c7936cd66f808803ffe3d55acad7a52d6130937bb87feac17b64736f6c634300080d0033",
    "linkReferences": {}
  },
  "methodIdentifiers": {
    "approve(address,uint256)": "095ea7b3",
    "balanceOf(address)": "70a08231",
    "baseURI()": "6c0360eb",
    "currentMintId()": "73b6abd5",
    "getApproved(uint256)": "081812fc",
    "isApprovedForAll(address,address)": "e985e9c5",
    "mint()": "1249c58b",
    "name()": "06fdde03",
    "owner()": "8da5cb5b",
    "ownerOf(uint256)": "6352211e",
    "renounceOwnership()": "715018a6",
    "safeTransferFrom(address,address,uint256)": "42842e0e",
    "safeTransferFrom(address,address,uint256,bytes)": "b88d4fde",
    "setApprovalForAll(address,bool)": "a22cb465",
    "supportsInterface(bytes4)": "01ffc9a7",
    "symbol()": "95d89b41",
    "tokenURI(uint256)": "c87b56dd",
    "transferFrom(address,address,uint256)": "23b872dd",
    "transferOwnership(address)": "f2fde38b",
    "withdraw()": "3ccfd60b"
  },
  "id": 29
}