{
  "abi": [
    {
      "inputs": [
        {
          "internalType": "contract IVerifier",
          "name": "_verifier",
          "type": "address"
        },
        {
          "internalType": "address",
          "name": "_owner",
          "type": "address"
        }
      ],
      "stateMutability": "nonpayable",
      "type": "constructor"
    },
    {
      "inputs": [
        {
          "components": [
            {
              "internalType": "uint256",
              "name": "nonce",
              "type": "uint256"
            },
            {
              "internalType": "uint256",
              "name": "gasPrice",
              "type": "uint256"
            },
            {
              "internalType": "uint256",
              "name": "gasLimit",
              "type": "uint256"
            },
            {
              "internalType": "address",
              "name": "to",
              "type": "address"
            },
            {
              "internalType": "uint256",
              "name": "value",
              "type": "uint256"
            },
            {
              "internalType": "bytes",
              "name": "data",
              "type": "bytes"
            },
            {
              "internalType": "address",
              "name": "from",
              "type": "address"
            },
            {
              "internalType": "bytes32",
              "name": "r",
              "type": "bytes32"
            },
            {
              "internalType": "uint8",
              "name": "v",
              "type": "uint8"
            },
            {
              "internalType": "bytes32",
              "name": "s",
              "type": "bytes32"
            }
          ],
          "internalType": "struct Wallet.TransactionObject",
          "name": "transaction",
          "type": "tuple"
        },
        {
          "internalType": "uint256[]",
          "name": "pubInputs",
          "type": "uint256[]"
        },
        {
          "internalType": "bytes",
          "name": "proof",
          "type": "bytes"
        }
      ],
      "name": "execute",
      "outputs": [],
      "stateMutability": "nonpayable",
      "type": "function"
    },
    {
      "inputs": [
        {
          "components": [
            {
              "internalType": "address",
              "name": "destContract",
              "type": "address"
            },
            {
              "internalType": "uint256",
              "name": "value",
              "type": "uint256"
            },
            {
              "internalType": "bytes",
              "name": "data",
              "type": "bytes"
            }
          ],
          "internalType": "struct Wallet.TransactionAction",
          "name": "action",
          "type": "tuple"
        },
        {
          "internalType": "uint8",
          "name": "v",
          "type": "uint8"
        },
        {
          "internalType": "bytes32",
          "name": "r",
          "type": "bytes32"
        },
        {
          "internalType": "bytes32",
          "name": "s",
          "type": "bytes32"
        }
      ],
      "name": "executeEip712",
      "outputs": [],
      "stateMutability": "nonpayable",
      "type": "function"
    },
    {
      "stateMutability": "payable",
      "type": "receive"
    }
  ],
  "bytecode": {
    "object": "0x60806040527fbac9c48fb3da328c7ff806b34fade3647095e40230b83b1477f4197cec55b00160025534801561003457600080fd5b506040516109643803806109648339810160408190526100539161009c565b600080546001600160a01b039384166001600160a01b031991821617909155600180549290931691161790556100d6565b6001600160a01b038116811461009957600080fd5b50565b600080604083850312156100af57600080fd5b82516100ba81610084565b60208401519092506100cb81610084565b809150509250929050565b61087f806100e56000396000f3fe60806040526004361061002d5760003560e01c806396ebadf314610039578063b55025011461005b57600080fd5b3661003457005b600080fd5b34801561004557600080fd5b50610059610054366004610546565b61007b565b005b34801561006757600080fd5b50610059610076366004610671565b6101b2565b600054604051630bd205a960e41b81526001600160a01b039091169063bd205a90906100ad9085908590600401610780565b602060405180830381865afa1580156100ca573d6000803e3d6000fd5b505050506040513d601f19601f820116820180604052508101906100ee91906107d7565b6101355760405162461bcd60e51b81526020600482015260146024820152731e9ac81c1c9bdbd9881b9bdd0818dbdc9c9958dd60621b604482015260640160405180910390fd5b600083606001516001600160a01b031684608001518560a0015160405161015c9190610800565b60006040518083038185875af1925050503d8060008114610199576040519150601f19603f3d011682016040523d82523d6000602084013e61019e565b606091505b50509050806101ac57600080fd5b50505050565b6101be8484848461023c565b600084600001516001600160a01b0316856020015186604001516040516101e59190610800565b60006040518083038185875af1925050503d8060008114610222576040519150601f19603f3d011682016040523d82523d6000602084013e610227565b606091505b505090508061023557600080fd5b5050505050565b6000610247856102d0565b6040805160008082526020820180845284905260ff88169282019290925260608101869052608081018590529192509060019060a0016020604051602081039080840390855afa15801561029f573d6000803e3d6000fd5b5050604051601f1901516001549092506001600160a01b0380841691161490506102c857600080fd5b505050505050565b6000806002548360000151846020015185604001516040516020016102f8949392919061081c565b60408051808303601f1901815282825280516020918201207f8cad95687ba82c2ce50e74f7b754645e5117c3a5bec8151c0726d5857980a866828501527fcfe1633df53a0649d88d788961f26058c5e7a0b5644675f19f67bb2975827ba284840152466060850152306080808601919091528351808603909101815260a08501845280519083012061190160f01b60c086015260c285015260e2808501919091528251808503909101815261010290930190915281519101209392505050565b634e487b7160e01b600052604160045260246000fd5b604051610140810167ffffffffffffffff811182821017156103f2576103f26103b8565b60405290565b604051601f8201601f1916810167ffffffffffffffff81118282101715610421576104216103b8565b604052919050565b80356001600160a01b038116811461044057600080fd5b919050565b600082601f83011261045657600080fd5b813567ffffffffffffffff811115610470576104706103b8565b610483601f8201601f19166020016103f8565b81815284602083860101111561049857600080fd5b816020850160208301376000918101602001919091529392505050565b803560ff8116811461044057600080fd5b600082601f8301126104d757600080fd5b8135602067ffffffffffffffff8211156104f3576104f36103b8565b8160051b6105028282016103f8565b928352848101820192828101908785111561051c57600080fd5b83870192505b8483101561053b57823582529183019190830190610522565b979650505050505050565b60008060006060848603121561055b57600080fd5b833567ffffffffffffffff8082111561057357600080fd5b90850190610140828803121561058857600080fd5b6105906103ce565b8235815260208301356020820152604083013560408201526105b460608401610429565b60608201526080830135608082015260a0830135828111156105d557600080fd5b6105e189828601610445565b60a0830152506105f360c08401610429565b60c082015260e083013560e08201526101006106108185016104b5565b9082015261012092830135928101929092529093506020850135908082111561063857600080fd5b610644878388016104c6565b9350604086013591508082111561065a57600080fd5b5061066786828701610445565b9150509250925092565b6000806000806080858703121561068757600080fd5b843567ffffffffffffffff8082111561069f57600080fd5b90860190606082890312156106b357600080fd5b6040516060810181811083821117156106ce576106ce6103b8565b6040526106da83610429565b8152602083013560208201526040830135828111156106f857600080fd5b6107048a828601610445565b604083015250955061071b915050602086016104b5565b93969395505050506040820135916060013590565b60005b8381101561074b578181015183820152602001610733565b50506000910152565b6000815180845261076c816020860160208601610730565b601f01601f19169290920160200192915050565b604080825283519082018190526000906020906060840190828701845b828110156107b95781518452928401929084019060010161079d565b505050838103828501526107cd8186610754565b9695505050505050565b6000602082840312156107e957600080fd5b815180151581146107f957600080fd5b9392505050565b60008251610812818460208701610730565b9190910192915050565b84815260018060a01b03841660208201528260408201526080606082015260006107cd608083018461075456fea264697066735822122027857e0c32683509983cf4b36d40aaebacbae7eebac7e2b826cddec1201ea50564736f6c63430008130033",
    "linkReferences": {}
  },
  "methodIdentifiers": {
    "execute((uint256,uint256,uint256,address,uint256,bytes,address,bytes32,uint8,bytes32),uint256[],bytes)": "96ebadf3",
    "executeEip712((address,uint256,bytes),uint8,bytes32,bytes32)": "b5502501"
  },
  "id": 16
}