{
  "abi": [
    {
      "inputs": [
        {
          "internalType": "string",
          "name": "_initialBaseURI",
          "type": "string"
        }
      ],
      "stateMutability": "nonpayable",
      "type": "constructor"
    },
    {
      "anonymous": false,
      "inputs": [
        {
          "indexed": true,
          "internalType": "address",
          "name": "owner",
          "type": "address"
        },
        {
          "indexed": true,
          "internalType": "address",
          "name": "approved",
          "type": "address"
        },
        {
          "indexed": true,
          "internalType": "uint256",
          "name": "tokenId",
          "type": "uint256"
        }
      ],
      "name": "Approval",
      "type": "event"
    },
    {
      "anonymous": false,
      "inputs": [
        {
          "indexed": true,
          "internalType": "address",
          "name": "owner",
          "type": "address"
        },
        {
          "indexed": true,
          "internalType": "address",
          "name": "operator",
          "type": "address"
        },
        {
          "indexed": false,
          "internalType": "bool",
          "name": "approved",
          "type": "bool"
        }
      ],
      "name": "ApprovalForAll",
      "type": "event"
    },
    {
      "anonymous": false,
      "inputs": [
        {
          "indexed": true,
          "internalType": "address",
          "name": "previousOwner",
          "type": "address"
        },
        {
          "indexed": true,
          "internalType": "address",
          "name": "newOwner",
          "type": "address"
        }
      ],
      "name": "OwnershipTransferred",
      "type": "event"
    },
    {
      "anonymous": false,
      "inputs": [
        {
          "indexed": true,
          "internalType": "address",
          "name": "from",
          "type": "address"
        },
        {
          "indexed": true,
          "internalType": "address",
          "name": "to",
          "type": "address"
        },
        {
          "indexed": true,
          "internalType": "uint256",
          "name": "tokenId",
          "type": "uint256"
        }
      ],
      "name": "Transfer",
      "type": "event"
    },
    {
      "inputs": [
        {
          "internalType": "address",
          "name": "to",
          "type": "address"
        },
        {
          "internalType": "uint256",
          "name": "tokenId",
          "type": "uint256"
        }
      ],
      "name": "approve",
      "outputs": [],
      "stateMutability": "nonpayable",
      "type": "function"
    },
    {
      "inputs": [
        {
          "internalType": "address",
          "name": "owner",
          "type": "address"
        }
      ],
      "name": "balanceOf",
      "outputs": [
        {
          "internalType": "uint256",
          "name": "",
          "type": "uint256"
        }
      ],
      "stateMutability": "view",
      "type": "function"
    },
    {
      "inputs": [],
      "name": "baseURI",
      "outputs": [
        {
          "internalType": "string",
          "name": "",
          "type": "string"
        }
      ],
      "stateMutability": "view",
      "type": "function"
    },
    {
      "inputs": [],
      "name": "cost",
      "outputs": [
        {
          "internalType": "uint256",
          "name": "",
          "type": "uint256"
        }
      ],
      "stateMutability": "view",
      "type": "function"
    },
    {
      "inputs": [],
      "name": "currentMintId",
      "outputs": [
        {
          "internalType": "uint256",
          "name": "",
          "type": "uint256"
        }
      ],
      "stateMutability": "view",
      "type": "function"
    },
    {
      "inputs": [
        {
          "internalType": "uint256",
          "name": "tokenId",
          "type": "uint256"
        }
      ],
      "name": "getApproved",
      "outputs": [
        {
          "internalType": "address",
          "name": "",
          "type": "address"
        }
      ],
      "stateMutability": "view",
      "type": "function"
    },
    {
      "inputs": [
        {
          "internalType": "address",
          "name": "owner",
          "type": "address"
        },
        {
          "internalType": "address",
          "name": "operator",
          "type": "address"
        }
      ],
      "name": "isApprovedForAll",
      "outputs": [
        {
          "internalType": "bool",
          "name": "",
          "type": "bool"
        }
      ],
      "stateMutability": "view",
      "type": "function"
    },
    {
      "inputs": [],
      "name": "mint",
      "outputs": [],
      "stateMutability": "payable",
      "type": "function"
    },
    {
      "inputs": [],
      "name": "name",
      "outputs": [
        {
          "internalType": "string",
          "name": "",
          "type": "string"
        }
      ],
      "stateMutability": "view",
      "type": "function"
    },
    {
      "inputs": [],
      "name": "owner",
      "outputs": [
        {
          "internalType": "address",
          "name": "",
          "type": "address"
        }
      ],
      "stateMutability": "view",
      "type": "function"
    },
    {
      "inputs": [
        {
          "internalType": "uint256",
          "name": "tokenId",
          "type": "uint256"
        }
      ],
      "name": "ownerOf",
      "outputs": [
        {
          "internalType": "address",
          "name": "",
          "type": "address"
        }
      ],
      "stateMutability": "view",
      "type": "function"
    },
    {
      "inputs": [],
      "name": "renounceOwnership",
      "outputs": [],
      "stateMutability": "nonpayable",
      "type": "function"
    },
    {
      "inputs": [
        {
          "internalType": "address",
          "name": "from",
          "type": "address"
        },
        {
          "internalType": "address",
          "name": "to",
          "type": "address"
        },
        {
          "internalType": "uint256",
          "name": "tokenId",
          "type": "uint256"
        }
      ],
      "name": "safeTransferFrom",
      "outputs": [],
      "stateMutability": "nonpayable",
      "type": "function"
    },
    {
      "inputs": [
        {
          "internalType": "address",
          "name": "from",
          "type": "address"
        },
        {
          "internalType": "address",
          "name": "to",
          "type": "address"
        },
        {
          "internalType": "uint256",
          "name": "tokenId",
          "type": "uint256"
        },
        {
          "internalType": "bytes",
          "name": "data",
          "type": "bytes"
        }
      ],
      "name": "safeTransferFrom",
      "outputs": [],
      "stateMutability": "nonpayable",
      "type": "function"
    },
    {
      "inputs": [
        {
          "internalType": "address",
          "name": "operator",
          "type": "address"
        },
        {
          "internalType": "bool",
          "name": "approved",
          "type": "bool"
        }
      ],
      "name": "setApprovalForAll",
      "outputs": [],
      "stateMutability": "nonpayable",
      "type": "function"
    },
    {
      "inputs": [
        {
          "internalType": "bytes4",
          "name": "interfaceId",
          "type": "bytes4"
        }
      ],
      "name": "supportsInterface",
      "outputs": [
        {
          "internalType": "bool",
          "name": "",
          "type": "bool"
        }
      ],
      "stateMutability": "view",
      "type": "function"
    },
    {
      "inputs": [],
      "name": "symbol",
      "outputs": [
        {
          "internalType": "string",
          "name": "",
          "type": "string"
        }
      ],
      "stateMutability": "view",
      "type": "function"
    },
    {
      "inputs": [
        {
          "internalType": "uint256",
          "name": "tokenId",
          "type": "uint256"
        }
      ],
      "name": "tokenURI",
      "outputs": [
        {
          "internalType": "string",
          "name": "",
          "type": "string"
        }
      ],
      "stateMutability": "view",
      "type": "function"
    },
    {
      "inputs": [
        {
          "internalType": "address",
          "name": "from",
          "type": "address"
        },
        {
          "internalType": "address",
          "name": "to",
          "type": "address"
        },
        {
          "internalType": "uint256",
          "name": "tokenId",
          "type": "uint256"
        }
      ],
      "name": "transferFrom",
      "outputs": [],
      "stateMutability": "nonpayable",
      "type": "function"
    },
    {
      "inputs": [
        {
          "internalType": "address",
          "name": "newOwner",
          "type": "address"
        }
      ],
      "name": "transferOwnership",
      "outputs": [],
      "stateMutability": "nonpayable",
      "type": "function"
    },
    {
      "inputs": [],
      "name": "withdraw",
      "outputs": [],
      "stateMutability": "nonpayable",
      "type": "function"
    }
  ],
  "bytecode": {
    "object": "0x608060405266b1a2bc2ec5000060085560006009553480156200002157600080fd5b5060405162001ac138038062001ac18339810160408190526200004491620001e7565b604080518082018252600680825265139054d3919560d21b60208084018281528551808701909652928552840152815191929162000085916000916200012b565b5080516200009b9060019060208401906200012b565b505050620000b8620000b2620000d560201b60201c565b620000d9565b8051620000cd9060079060208401906200012b565b5050620002ff565b3390565b600680546001600160a01b038381166001600160a01b0319831681179093556040519116919082907f8be0079c531659141344cd1fd0a4f28419497f9722a3daafe3b4186f6b6457e090600090a35050565b8280546200013990620002c3565b90600052602060002090601f0160209004810192826200015d5760008555620001a8565b82601f106200017857805160ff1916838001178555620001a8565b82800160010185558215620001a8579182015b82811115620001a85782518255916020019190600101906200018b565b50620001b6929150620001ba565b5090565b5b80821115620001b65760008155600101620001bb565b634e487b7160e01b600052604160045260246000fd5b60006020808385031215620001fb57600080fd5b82516001600160401b03808211156200021357600080fd5b818501915085601f8301126200022857600080fd5b8151818111156200023d576200023d620001d1565b604051601f8201601f19908116603f01168101908382118183101715620002685762000268620001d1565b8160405282815288868487010111156200028157600080fd5b600093505b82841015620002a5578484018601518185018701529285019262000286565b82841115620002b75760008684830101525b98975050505050505050565b600181811c90821680620002d857607f821691505b602082108103620002f957634e487b7160e01b600052602260045260246000fd5b50919050565b6117b2806200030f6000396000f3fe60806040526004361061012a5760003560e01c80636c0360eb116100ab57806395d89b411161006f57806395d89b41146102ff578063a22cb46514610314578063b88d4fde14610334578063c87b56dd14610354578063e985e9c514610374578063f2fde38b146103bd57600080fd5b80636c0360eb1461028157806370a0823114610296578063715018a6146102b657806373b6abd5146102cb5780638da5cb5b146102e157600080fd5b806313faede6116100f257806313faede6146101e857806323b872dd1461020c5780633ccfd60b1461022c57806342842e0e146102415780636352211e1461026157600080fd5b806301ffc9a71461012f57806306fdde0314610164578063081812fc14610186578063095ea7b3146101be5780631249c58b146101e0575b600080fd5b34801561013b57600080fd5b5061014f61014a366004611310565b6103dd565b60405190151581526020015b60405180910390f35b34801561017057600080fd5b5061017961042f565b60405161015b9190611385565b34801561019257600080fd5b506101a66101a1366004611398565b6104c1565b6040516001600160a01b03909116815260200161015b565b3480156101ca57600080fd5b506101de6101d93660046113cd565b6104e8565b005b6101de610602565b3480156101f457600080fd5b506101fe60085481565b60405190815260200161015b565b34801561021857600080fd5b506101de6102273660046113f7565b6106c9565b34801561023857600080fd5b506101de6106fa565b34801561024d57600080fd5b506101de61025c3660046113f7565b610776565b34801561026d57600080fd5b506101a661027c366004611398565b610791565b34801561028d57600080fd5b506101796107f1565b3480156102a257600080fd5b506101fe6102b1366004611433565b61087f565b3480156102c257600080fd5b506101de610905565b3480156102d757600080fd5b506101fe60095481565b3480156102ed57600080fd5b506006546001600160a01b03166101a6565b34801561030b57600080fd5b50610179610917565b34801561032057600080fd5b506101de61032f36600461144e565b610926565b34801561034057600080fd5b506101de61034f3660046114a0565b610935565b34801561036057600080fd5b5061017961036f366004611398565b61096d565b34801561038057600080fd5b5061014f61038f36600461157c565b6001600160a01b03918216600090815260056020908152604080832093909416825291909152205460ff1690565b3480156103c957600080fd5b506101de6103d8366004611433565b6109d4565b60006001600160e01b031982166380ac58cd60e01b148061040e57506001600160e01b03198216635b5e139f60e01b145b8061042957506301ffc9a760e01b6001600160e01b03198316145b92915050565b60606000805461043e906115af565b80601f016020809104026020016040519081016040528092919081815260200182805461046a906115af565b80156104b75780601f1061048c576101008083540402835291602001916104b7565b820191906000526020600020905b81548152906001019060200180831161049a57829003601f168201915b5050505050905090565b60006104cc82610a4a565b506000908152600460205260409020546001600160a01b031690565b60006104f382610791565b9050806001600160a01b0316836001600160a01b0316036105655760405162461bcd60e51b815260206004820152602160248201527f4552433732313a20617070726f76616c20746f2063757272656e74206f776e656044820152603960f91b60648201526084015b60405180910390fd5b336001600160a01b03821614806105815750610581813361038f565b6105f35760405162461bcd60e51b815260206004820152603d60248201527f4552433732313a20617070726f76652063616c6c6572206973206e6f7420746f60448201527f6b656e206f776e6572206f7220617070726f76656420666f7220616c6c000000606482015260840161055c565b6105fd8383610aa9565b505050565b61060b3361087f565b156106585760405162461bcd60e51b815260206004820152601860248201527f596f7520616c72656164792068617665206120746f6b656e0000000000000000604482015260640161055c565b60085434101561069f5760405162461bcd60e51b8152602060048201526012602482015271496e73756666696369656e742066756e647360701b604482015260640161055c565b6009546106ad9060016115e9565b6009556106c7336009546106c29060016115e9565b610b17565b565b6106d33382610b31565b6106ef5760405162461bcd60e51b815260040161055c9061160f565b6105fd838383610bb0565b610702610d14565b60006107166006546001600160a01b031690565b6001600160a01b03164760405160006040518083038185875af1925050503d8060008114610760576040519150601f19603f3d011682016040523d82523d6000602084013e610765565b606091505b505090508061077357600080fd5b50565b6105fd83838360405180602001604052806000815250610935565b6000818152600260205260408120546001600160a01b0316806104295760405162461bcd60e51b8152602060048201526018602482015277115490cdcc8c4e881a5b9d985b1a59081d1bdad95b88125160421b604482015260640161055c565b600780546107fe906115af565b80601f016020809104026020016040519081016040528092919081815260200182805461082a906115af565b80156108775780601f1061084c57610100808354040283529160200191610877565b820191906000526020600020905b81548152906001019060200180831161085a57829003601f168201915b505050505081565b60006001600160a01b0382166108e95760405162461bcd60e51b815260206004820152602960248201527f4552433732313a2061646472657373207a65726f206973206e6f7420612076616044820152683634b21037bbb732b960b91b606482015260840161055c565b506001600160a01b031660009081526003602052604090205490565b61090d610d14565b6106c76000610d6e565b60606001805461043e906115af565b610931338383610dc0565b5050565b61093f3383610b31565b61095b5760405162461bcd60e51b815260040161055c9061160f565b61096784848484610e8e565b50505050565b606061097882610a4a565b6000610982610ec1565b905060008151116109a257604051806020016040528060008152506109cd565b806109ac84610ed0565b6040516020016109bd92919061165c565b6040516020818303038152906040525b9392505050565b6109dc610d14565b6001600160a01b038116610a415760405162461bcd60e51b815260206004820152602660248201527f4f776e61626c653a206e6577206f776e657220697320746865207a65726f206160448201526564647265737360d01b606482015260840161055c565b61077381610d6e565b6000818152600260205260409020546001600160a01b03166107735760405162461bcd60e51b8152602060048201526018602482015277115490cdcc8c4e881a5b9d985b1a59081d1bdad95b88125160421b604482015260640161055c565b600081815260046020526040902080546001600160a01b0319166001600160a01b0384169081179091558190610ade82610791565b6001600160a01b03167f8c5be1e5ebec7d5bd14f71427d1e84f3dd0314c0f7b2291e5b200ac8c7c3b92560405160405180910390a45050565b610931828260405180602001604052806000815250610f63565b600080610b3d83610791565b9050806001600160a01b0316846001600160a01b03161480610b8457506001600160a01b0380821660009081526005602090815260408083209388168352929052205460ff165b80610ba85750836001600160a01b0316610b9d846104c1565b6001600160a01b0316145b949350505050565b826001600160a01b0316610bc382610791565b6001600160a01b031614610be95760405162461bcd60e51b815260040161055c9061168b565b6001600160a01b038216610c4b5760405162461bcd60e51b8152602060048201526024808201527f4552433732313a207472616e7366657220746f20746865207a65726f206164646044820152637265737360e01b606482015260840161055c565b826001600160a01b0316610c5e82610791565b6001600160a01b031614610c845760405162461bcd60e51b815260040161055c9061168b565b600081815260046020908152604080832080546001600160a01b03199081169091556001600160a01b0387811680865260038552838620805460001901905590871680865283862080546001019055868652600290945282852080549092168417909155905184937fddf252ad1be2c89b69c2b068fc378daa952ba7f163c4a11628f55a4df523b3ef91a4505050565b6006546001600160a01b031633146106c75760405162461bcd60e51b815260206004820181905260248201527f4f776e61626c653a2063616c6c6572206973206e6f7420746865206f776e6572604482015260640161055c565b600680546001600160a01b038381166001600160a01b0319831681179093556040519116919082907f8be0079c531659141344cd1fd0a4f28419497f9722a3daafe3b4186f6b6457e090600090a35050565b816001600160a01b0316836001600160a01b031603610e215760405162461bcd60e51b815260206004820152601960248201527f4552433732313a20617070726f766520746f2063616c6c657200000000000000604482015260640161055c565b6001600160a01b03838116600081815260056020908152604080832094871680845294825291829020805460ff191686151590811790915591519182527f17307eab39ab6107e8899845ad3d59bd9653f200f220920489ca2b5937696c31910160405180910390a3505050565b610e99848484610bb0565b610ea584848484610f96565b6109675760405162461bcd60e51b815260040161055c906116d0565b60606007805461043e906115af565b60606000610edd83611097565b600101905060008167ffffffffffffffff811115610efd57610efd61148a565b6040519080825280601f01601f191660200182016040528015610f27576020820181803683370190505b5090508181016020015b600019016f181899199a1a9b1b9c1cb0b131b232b360811b600a86061a8153600a8504945084610f3157509392505050565b610f6d838361116f565b610f7a6000848484610f96565b6105fd5760405162461bcd60e51b815260040161055c906116d0565b60006001600160a01b0384163b1561108c57604051630a85bd0160e11b81526001600160a01b0385169063150b7a0290610fda903390899088908890600401611722565b6020604051808303816000875af1925050508015611015575060408051601f3d908101601f191682019092526110129181019061175f565b60015b611072573d808015611043576040519150601f19603f3d011682016040523d82523d6000602084013e611048565b606091505b50805160000361106a5760405162461bcd60e51b815260040161055c906116d0565b805181602001fd5b6001600160e01b031916630a85bd0160e11b149050610ba8565b506001949350505050565b60008072184f03e93ff9f4daa797ed6e38ed64bf6a1f0160401b83106110d65772184f03e93ff9f4daa797ed6e38ed64bf6a1f0160401b830492506040015b6d04ee2d6d415b85acef81000000008310611102576d04ee2d6d415b85acef8100000000830492506020015b662386f26fc10000831061112057662386f26fc10000830492506010015b6305f5e1008310611138576305f5e100830492506008015b612710831061114c57612710830492506004015b6064831061115e576064830492506002015b600a83106104295760010192915050565b6001600160a01b0382166111c55760405162461bcd60e51b815260206004820181905260248201527f4552433732313a206d696e7420746f20746865207a65726f2061646472657373604482015260640161055c565b6000818152600260205260409020546001600160a01b03161561122a5760405162461bcd60e51b815260206004820152601c60248201527f4552433732313a20746f6b656e20616c7265616479206d696e74656400000000604482015260640161055c565b6000818152600260205260409020546001600160a01b03161561128f5760405162461bcd60e51b815260206004820152601c60248201527f4552433732313a20746f6b656e20616c7265616479206d696e74656400000000604482015260640161055c565b6001600160a01b038216600081815260036020908152604080832080546001019055848352600290915280822080546001600160a01b0319168417905551839291907fddf252ad1be2c89b69c2b068fc378daa952ba7f163c4a11628f55a4df523b3ef908290a45050565b6001600160e01b03198116811461077357600080fd5b60006020828403121561132257600080fd5b81356109cd816112fa565b60005b83811015611348578181015183820152602001611330565b838111156109675750506000910152565b6000815180845261137181602086016020860161132d565b601f01601f19169290920160200192915050565b6020815260006109cd6020830184611359565b6000602082840312156113aa57600080fd5b5035919050565b80356001600160a01b03811681146113c857600080fd5b919050565b600080604083850312156113e057600080fd5b6113e9836113b1565b946020939093013593505050565b60008060006060848603121561140c57600080fd5b611415846113b1565b9250611423602085016113b1565b9150604084013590509250925092565b60006020828403121561144557600080fd5b6109cd826113b1565b6000806040838503121561146157600080fd5b61146a836113b1565b91506020830135801515811461147f57600080fd5b809150509250929050565b634e487b7160e01b600052604160045260246000fd5b600080600080608085870312156114b657600080fd5b6114bf856113b1565b93506114cd602086016113b1565b925060408501359150606085013567ffffffffffffffff808211156114f157600080fd5b818701915087601f83011261150557600080fd5b8135818111156115175761151761148a565b604051601f8201601f19908116603f0116810190838211818310171561153f5761153f61148a565b816040528281528a602084870101111561155857600080fd5b82602086016020830137600060208483010152809550505050505092959194509250565b6000806040838503121561158f57600080fd5b611598836113b1565b91506115a6602084016113b1565b90509250929050565b600181811c908216806115c357607f821691505b6020821081036115e357634e487b7160e01b600052602260045260246000fd5b50919050565b6000821982111561160a57634e487b7160e01b600052601160045260246000fd5b500190565b6020808252602d908201527f4552433732313a2063616c6c6572206973206e6f7420746f6b656e206f776e6560408201526c1c881bdc88185c1c1c9bdd9959609a1b606082015260800190565b6000835161166e81846020880161132d565b83519083019061168281836020880161132d565b01949350505050565b60208082526025908201527f4552433732313a207472616e736665722066726f6d20696e636f72726563742060408201526437bbb732b960d91b606082015260800190565b60208082526032908201527f4552433732313a207472616e7366657220746f206e6f6e20455243373231526560408201527131b2b4bb32b91034b6b83632b6b2b73a32b960711b606082015260800190565b6001600160a01b038581168252841660208201526040810183905260806060820181905260009061175590830184611359565b9695505050505050565b60006020828403121561177157600080fd5b81516109cd816112fa56fea264697066735822122071096007a1f1bef83caa5a506c9d44cea7547e64940bc31738417104b2620ac564736f6c634300080d0033",
    "linkReferences": {}
  },
  "methodIdentifiers": {
    "approve(address,uint256)": "095ea7b3",
    "balanceOf(address)": "70a08231",
    "baseURI()": "6c0360eb",
    "cost()": "13faede6",
    "currentMintId()": "73b6abd5",
    "getApproved(uint256)": "081812fc",
    "isApprovedForAll(address,address)": "e985e9c5",
    "mint()": "1249c58b",
    "name()": "06fdde03",
    "owner()": "8da5cb5b",
    "ownerOf(uint256)": "6352211e",
    "renounceOwnership()": "715018a6",
    "safeTransferFrom(address,address,uint256)": "42842e0e",
    "safeTransferFrom(address,address,uint256,bytes)": "b88d4fde",
    "setApprovalForAll(address,bool)": "a22cb465",
    "supportsInterface(bytes4)": "01ffc9a7",
    "symbol()": "95d89b41",
    "tokenURI(uint256)": "c87b56dd",
    "transferFrom(address,address,uint256)": "23b872dd",
    "transferOwnership(address)": "f2fde38b",
    "withdraw()": "3ccfd60b"
  },
  "id": 28
}